:020000040800F2
:100000000050002019090008B5080008BD080008C4
:10001000C5080008CD080008D50800080000000049
:10002000000000000000000000000000DD080008E3
:10003000E908000800000000F508000801090008B0
:1000400061090008610900086109000861090008E8
:1000500061090008610900086109000861090008D8
:1000600061090008610900086109000861090008C8
:1000700061090008610900086109000861090008B8
:1000800061090008610900086109000861090008A8
:100090006109000861090008610900086109000898
:1000A0006109000861090008610900086109000888
:1000B0006109000861090008610900086109000878
:1000C0006109000861090008610900086109000868
:1000D0006109000861090008610900086109000858
:1000E00061090008610900086109000800000000BA
:1000F0000000000000000000000000000000000000
:0C01000000000000000000005FF808F1A3
:10010C0010B5054C237833B9044B13B10448AFF345
:10011C0000800123237010BD0C00002000000000A3
:10012C003823000808B5034B1BB103490348AFF350
:10013C00008008BD000000001000002038230008DB
:10014C004FF0FF0C1CEAD0521EBF1CEAD15392EAAE
:10015C000C0F93EA0C0F6FD01A4480EA010C40028A
:10016C0018BF5FEA41211ED04FF0006343EA5010E4
:10017C0043EA5111A0FB01310CF00040B1F5000F26
:10018C003EBF490041EAD3715B0040EA010062F1D5
:10019C007F02FD2A1DD8B3F1004F40EBC25008BFBF
:1001AC0020F00100704790F0000F0CF0004C08BFDD
:1001BC0049024CEA502040EA51207F3AC2BFD2F1AA
:1001CC00FF0340EAC250704740F400004FF00003B8
:1001DC00013A5DDC12F1190FDCBF00F000407047F2
:1001EC00C2F10002410021FA02F1C2F1200200FA30
:1001FC0002FC5FEA310040F1000053EA4C0308BFF7
:10020C0020EADC70704792F0000F00F0004C02BF47
:10021C00400010F4000F013AF9D040EA0C0093F0C2
:10022C00000F01F0004C02BF490011F4000F013B1C
:10023C00F9D041EA0C018FE70CEAD15392EA0C0F8A
:10024C0018BF93EA0C0F0AD030F0004C18BF31F0F5
:10025C00004CD8D180EA010000F00040704790F0CB
:10026C00000F17BF90F0004F084691F0000F91F06F
:10027C00004F14D092EA0C0F01D142020FD193EA35
:10028C000C0F03D14B0218BF084608D180EA0100BD
:10029C0000F0004040F0FE4040F40000704740F099
:1002AC00FE4040F4400070474FF0FF0C1CEAD05267
:1002BC001EBF1CEAD15392EA0C0F93EA0C0F69D0C3
:1002CC00A2EB030280EA010C49024FEA402037D02E
:1002DC004FF0805343EA111143EA10130CF0004025
:1002EC008B4238BF5B0042F17D024FF4000C8B4215
:1002FC0024BF5B1A40EA0C00B3EB510F24BFA3EBF5
:10030C00510340EA5C00B3EB910F24BFA3EB9103C4
:10031C0040EA9C00B3EBD10F24BFA3EBD10340EA1E
:10032C00DC001B0118BF5FEA1C1CE0D1FD2A3FF664
:10033C0050AF8B4240EBC25008BF20F00100704719
:10034C000CF0004C4CEA50207F32C2BFD2F1FF03BC
:10035C0040EAC250704740F400004FF00003013AED
:10036C0037E792F0000F00F0004C02BF400010F491
:10037C00000F013AF9D040EA0C0093F0000F01F0A5
:10038C00004C02BF490011F4000F013BF9D041EAC7
:10039C000C0195E70CEAD15392EA0C0F08D14202FA
:1003AC007FF47DAF93EA0C0F7FF470AF084676E7CD
:1003BC0093EA0C0F04D14B023FF44CAF08466EE7A6
:1003CC0030F0004C18BF31F0004CCAD130F0004274
:1003DC007FF45CAF31F000437FF43CAF5FE700BFCC
:1003EC0042000ED2B2F1FE4F0BD34FF09E03B3EB93
:1003FC00126209D44FEA002343F0004323FA02F0BF
:10040C0070474FF00000704712F1610F01D14202AA
:10041C0002D14FF0FF3070474FF00000704700BF23
:10042C0080B584B000AF3B1D00221A605A609A6000
:10043C00184B194A1A60174B00229A60154B002270
:10044C001A73144B00221A75124B4FF46022DA61A6
:10045C00104B00225A600F4B01221A610D4800F01C
:10046C0001FB0346002B01D000F00CF900237B604C
:10047C000123BB600623FB603B1D1946054800F0B9
:10048C00C9FB0346002B01D000F0FCF800BF10376D
:10049C00BD4680BD280000200024014080B588B0F6
:1004AC0000AF786007F1100300221A605A609A605E
:1004BC00DA607B681B68144A934221D1134B9B6909
:1004CC00124A43F400739361104B9B6903F400735D
:1004DC00FB60FB680D4B9B690C4A43F00403936172
:1004EC000A4B9B6903F00403BB60BB6801233B61AF
:1004FC0003237B6107F110031946054800F0A8FDA2
:10050C0000BF2037BD4680BD0024014000100240D2
:10051C000008014080B588B000AF07F1100300223D
:10052C001A605A609A60DA601E4B9B691D4A43F050
:10053C00200393611B4B9B6903F02003FB60FB685A
:10054C00184B9B69174A43F004039361154B9B6945
:10055C0003F00403BB60BB68124B9B69114A43F068
:10056C00080393610F4B9B6903F008037B607B6866
:10057C00012241F603410C4800F0EEFE41F6034324
:10058C003B6101237B610023BB610323FB6107F10A
:10059C0010031946044800F05BFD00BF2037BD4630
:1005AC0080BD00BF00100240000C014080B500AFC0
:1005BC0000F0D2F900F00CF8FFF7ACFFFFF730FFBA
:1005CC0000F066F800F09AF801F01CFE00BFFDE7A1
:1005DC0080B594B000AF07F12803282200211846FB
:1005EC0001F078FE07F1140300221A605A609A6039
:1005FC00DA601A613B1D00221A605A609A60DA6058
:10060C000123BB624FF48033FB6200233B63012365
:10061C00BB6302237B644FF48033BB644FF4E01361
:10062C00FB6407F12803184600F0AEFE0346002BCE
:10063C0001D000F027F80F237B610223BB6100235C
:10064C00FB614FF480633B6200237B6207F1140370
:10065C000221184601F01AF90346002B01D000F0D4
:10066C0011F802237B600023FB603B1D184601F050
:10067C0069FA0346002B01D000F004F800BF503794
:10068C00BD4680BD80B400AF72B600BF00BFFDE7B1
:10069C0080B500AF174B184A1A60164B4FF4827294
:1006AC005A60144B00229A60124B0022DA60114BF4
:1006BC0000221A610F4B00225A610E4B4FF400724C
:1006CC009A610C4B2822DA610A4B00221A62094B00
:1006DC0000225A62074B00229A62064B0A22DA6207
:1006EC00044801F0E5FA0346002B01D0FFF7CAFFDE
:1006FC0000BF80BD580000200030014080B500AF25
:10070C00174B184A1A60164B4FF482725A60144BEE
:10071C0000229A60124B0022DA60114B00221A61FF
:10072C000F4B00225A610E4B4FF400729A610C4B26
:10073C001022DA610A4B00221A62094B00225A621B
:10074C00074B00229A62064B0A22DA62044801F037
:10075C00AFFA0346002B01D0FFF794FF00BF80BD1A
:10076C00B00000200038004080B58AB000AF78603F
:10077C0007F1180300221A605A609A60DA607B68ED
:10078C001B682B4A934224D12A4B9B69294A43F478
:10079C0080539361274B9B6903F480537B617B6986
:1007AC00244B9B69234A43F004039361214B9B69BF
:1007BC0003F004033B613B69A023BB610223FB6193
:1007CC0003237B6207F1180319461B4800F040FC19
:1007DC0029E07B681B68194A934224D1154BDB69CD
:1007EC00144A43F48043D361124BDB6903F4804316
:1007FC00FB60FB680F4B9B690E4A43F00803936147
:10080C000C4B9B6903F00803BB60BB684FF420439F
:10081C00BB610223FB6103237B6207F118031946BA
:10082C00074800F015FC00BF2837BD4680BD00BF4F
:10083C000030014000100240000801400038004028
:10084C00000C014080B485B000AF154B9B69144A75
:10085C0043F001039361124B9B6903F00103BB60EE
:10086C00BB680F4BDB690E4A43F08053D3610C4BD2
:10087C00DB6903F080537B607B680A4B5B68FB6031
:10088C00FB6823F0E063FB60FB6843F00073FB60E4
:10089C00044AFB68536000BF1437BD4680BC7047E8
:1008AC00001002400000014080B400AF00BFFDE723
:1008BC0080B400AF00BFFDE780B400AF00BFFDE720
:1008CC0080B400AF00BFFDE780B400AF00BFFDE710
:1008DC0080B400AF00BFBD4680BC704780B400AF91
:1008EC0000BFBD4680BC704780B400AF00BFBD46A2
:1008FC0080BC704780B500AF00F074F800BF80BDBD
:10090C0080B400AF00BFBD4680BC7047FFF7F8FF56
:10091C000B480C490C4A002302E0D458C450043351
:10092C00C4188C42F9D3094A094C002301E0136026
:10093C000432A242FBD301F0D5FCFFF737FE70471F
:10094C00000000200C0000207C2300080C0000207C
:10095C000C010020FEE7000080B500AF084B1B68BF
:10096C00074A43F010031360032000F03DFB0F20F7
:10097C0000F008F8FFF766FF0023184680BD00BFA3
:10098C000020024080B582B000AF7860124B1A682C
:10099C00124B1B7819464FF47A73B3FBF1F3B2FB8D
:1009AC00F3F3184600F047FB0346002B01D001235C
:1009BC000EE07B680F2B0AD8002279684FF0FF30CD
:1009CC0000F01DFB064A7B681360002300E0012346
:1009DC0018460837BD4680BD0000002008000020E6
:1009EC000400002080B400AF054B1B781A46054B61
:1009FC001B681344034A136000BFBD4680BC70479C
:100A0C00080000200801002080B400AF024B1B68D6
:100A1C001846BD4680BC70470801002080B584B0E4
:100A2C0000AF7860FFF7F0FFB8607B68FB60FB6895
:100A3C00B3F1FF3F05D00A4B1B781A46FB681344F1
:100A4C00FB6000BFFFF7E0FF0246BB68D31AFA68F1
:100A5C009A42F7D800BF00BF1037BD4680BD00BF1B
:100A6C000800002080B586B000AF78600023FB75CD
:100A7C0000233B610023BB600023FB607B68002BE1
:100A8C0001D10123BEE07B689B68002B7B689B6ACD
:100A9C00002B09D17B680022DA627B68002283F884
:100AAC0024207868FFF7FAFC786800F0ABF903466D
:100ABC00FB757B689B6A03F01003002B40F0998058
:100ACC00FB7D002B40F095807B689B6A23F4885358
:100ADC0023F0020343F002027B689A627B685A6837
:100AEC007B68DB691A437B681B7B5B001343BA682A
:100AFC001343BB607B689B68B3F5807F03D07B6836
:100B0C009B68012B02D14FF4807300E000233A69FB
:100B1C0013433B617B681B7D012B19D17B681B7BCD
:100B2C00002B09D17B689B69013B5A033B6913433A
:100B3C0043F400633B610BE07B689B6A43F020024B
:100B4C007B689A627B68DB6A43F001027B68DA623D
:100B5C007B681B685B6823F469417B681B683A6996
:100B6C000A435A607B681B689A68284B13407A6862
:100B7C001268B9680B4393607B689B68B3F5807F00
:100B8C0003D07B689B68012B04D17B681B69013BFC
:100B9C001B05FB607B681B68DB6A23F470017B68B8
:100BAC001B68FA680A43DA627B681B689A68184B00
:100BBC001340BA689A420BD17B680022DA627B68D8
:100BCC009B6A23F0030343F001027B689A6218E0EE
:100BDC007B689B6A23F0120343F010027B689A62D5
:100BEC007B68DB6A43F001027B68DA620123FB75E8
:100BFC0007E07B689B6A43F010027B689A620123D2
:100C0C00FB75FB7D18461837BD4680BDFDF7E1FF2F
:100C1C00FE0E1FFF80B485B000AF786039600023F2
:100C2C00FB730023BB607B6893F82430012B01D14C
:100C3C000223DCE07B68012283F824203B685B689C
:100C4C00062B1CD87B681B68596B3B685A6813468B
:100C5C009B001344053B1F2202FA03F3DB431940AC
:100C6C003B6818683B685A6813469B001344053B65
:100C7C0000FA03F27B681B680A435A633CE03B684A
:100C8C005B680C2B1CD87B681B68196B3B685A681B
:100C9C0013469B001344233B1F2202FA03F3DB434E
:100CAC0019403B6818683B685A6813469B0013440C
:100CBC00233B00FA03F27B681B680A431A631BE0B0
:100CCC007B681B68D96A3B685A6813469B001344BF
:100CDC00413B1F2202FA03F3DB4319403B681868BF
:100CEC003B685A6813469B001344413B00FA03F2DD
:100CFC007B681B680A43DA623B681B68092B1CD9AA
:100D0C007B681B68D9683B681A6813465B00134400
:100D1C001E3B072202FA03F3DB4319403B68986839
:100D2C003B681A6813465B0013441E3B00FA03F23F
:100D3C007B681B680A43DA6019E07B681B681969D9
:100D4C003B681A6813465B001344072202FA03F34C
:100D5C00DB4319403B6898683B681A6813465B0094
:100D6C00134400FA03F27B681B680A431A613B6860
:100D7C001B68102B03D03B681B68112B32D17B688E
:100D8C001B681D4A934225D17B681B689B6803F442
:100D9C000003002B26D17B681B689A687B681B6854
:100DAC0042F400029A603B681B68102B1AD1134B5B
:100DBC001B68134AA2FB03239A0C13469B00134493
:100DCC005B00BB6002E0BB68013BBB60BB68002BF7
:100DDC00F9D107E07B689B6A43F020027B689A623A
:100DEC000123FB737B68002283F82420FB7B1846CD
:100DFC001437BD4680BC7047002401400000002021
:100E0C0083DE1B4380B584B000AF78600023FB60A9
:100E1C007B681B689B6803F00103012B2ED17B6858
:100E2C001B689A687B681B6822F001029A60FFF7C6
:100E3C00EBFDF8601BE0FFF7E7FD0246FB68D31AF9
:100E4C00022B14D97B681B689B6803F00103012BF0
:100E5C000DD17B689B6A43F010027B689A627B68B9
:100E6C00DB6A43F001027B68DA62012307E07B68EE
:100E7C001B689B6803F00103012BDCD00023184690
:100E8C001037BD4680BD000080B485B000AF7860DF
:100E9C007B6803F00703FB600C4BDB68BB60BA6834
:100EAC004FF6FF031340BB60FB681A02BB68134389
:100EBC0043F0BF6343F40033BB60044ABB68D360A8
:100ECC0000BF1437BD4680BC704700BF00ED00E08A
:100EDC0080B400AF044BDB681B0A03F00703184611
:100EEC00BD4680BC704700BF00ED00E080B483B00D
:100EFC0000AF03463960FB7197F90730002B0ADB12
:100F0C003B68DAB20C4997F907301201D2B20B44A4
:100F1C0083F800230AE03B68DAB20849FB7903F056
:100F2C000F03043B1201D2B20B441A7600BF0C37EC
:100F3C00BD4680BC704700BF00E100E000ED00E062
:100F4C0080B489B000AFF860B9607A60FB6803F0D8
:100F5C000703FB61FB69C3F10703042B28BF0423C0
:100F6C00BB61FB690433062B02D9FB69033B00E030
:100F7C0000237B614FF0FF32BB6902FA03F3DA43C3
:100F8C00BB681A407B699A404FF0FF317B6901FACC
:100F9C0003F3D9437B680B40134318462437BD46F3
:100FAC0080BC704780B582B000AF78607B68013B35
:100FBC00B3F1807F01D301230FE00A4A7B68013B28
:100FCC0053600F214FF0FF30FFF790FF054B0022CD
:100FDC009A60044B07221A60002318460837BD4656
:100FEC0080BD00BF10E000E080B582B000AF78603B
:100FFC007868FFF749FF00BF0837BD4680BD80B554
:10100C0086B000AF0346B9607A60FB7300237B6146
:10101C00FFF75EFF78617A68B9687869FFF790FF2F
:10102C00024697F90F3011461846FFF75FFF00BFD5
:10103C001837BD4680BD80B582B000AF7860786847
:10104C00FFF7B0FF034618460837BD4680BD0000C9
:10105C0080B48BB000AF7860396000237B620023D2
:10106C003B6269E101227B6A02FA03F3FB613B6894
:10107C001B68FA691340BB61BA69FB699A4240F07C
:10108C0058813B685B689A4A93425ED0984A934277
:10109C0075D8984A934258D0964A93426FD8964A3C
:1010AC00934252D0944A934269D8944A93424CD07A
:1010BC00924A934263D8924A934246D0904A9342C2
:1010CC005DD8122B2AD8122B59D801A252F823F032
:1010DC005711000831110008431100088511000850
:1010EC008B1100088B1100088B1100088B11000864
:1010FC008B1100088B1100088B1100088B11000854
:10110C008B1100088B1100088B1100088B11000843
:10111C008B110008391100084D110008794A9342CF
:10112C0013D02CE03B68DB683B6229E03B68DB6852
:10113C0004333B6224E03B68DB6808333B621FE00E
:10114C003B68DB680C333B621AE03B689B68002B06
:10115C0002D104233B6213E03B689B68012B05D151
:10116C0008233B627B68FA691A6109E008233B6239
:10117C007B68FA695A6103E000233B6200E000BF20
:10118C00BB69FF2B01D87B6801E07B6804337B6172
:10119C00BB69FF2B02D87B6A9B0002E07B6A083B91
:1011AC009B003B617B691A680F213B6901FA03F3D1
:1011BC00DB431A40396A3B6901FA03F31A437B6932
:1011CC001A603B685B6803F08053002B00F0B18021
:1011DC004D4B9B694C4A43F0010393614A4B9B690D
:1011EC0003F00103BB60BB68484A7B6A9B0802336F
:1011FC0052F82330FB607B6A03F003039B000F2241
:10120C0002FA03F3DB43FA681340FB607B68404A45
:10121C00934213D07B683F4A93420DD07B683E4A81
:10122C00934207D07B683D4A934201D1032306E0E9
:10123C00042304E0022302E0012300E000237A6A85
:10124C0002F0030292009340FA681343FB602F49AB
:10125C007B6A9B080233FA6841F823203B685B6881
:10126C0003F48013002B06D02D4B9A682C49BB69D4
:10127C0013438B6006E02A4B9A68BB69DB43284911
:10128C0013408B603B685B6803F40013002B06D0A3
:10129C00234BDA682249BB691343CB6006E0204B31
:1012AC00DA68BB69DB431E491340CB603B685B6863
:1012BC0003F40033002B06D0194B5A681849BB694C
:1012CC0013434B6006E0164B5A68BB69DB43144969
:1012DC0013404B603B685B6803F48033002B21D0D8
:1012EC000F4B1A680E49BB6913430B6021E000BF1A
:1012FC0000003210000031100000221000002110FC
:10130C0000001210000011100010024000000140FB
:10131C0000080140000C0140001001400014014085
:10132C00000401400B4B1A68BB69DB4309491340AD
:10133C000B607B6A01337B623B681A687B6A22FA1A
:10134C0003F3002B7FF48EAE00BF00BF2C37BD46DD
:10135C0080BC70470004014080B483B000AF78605B
:10136C000B467B8013467B707B78002B03D07A88EE
:10137C007B681A6103E07B881A047B681A6100BFE2
:10138C000C37BD4680BC704780B586B000AF786026
:10139C007B68002B01D1012372E27B681B6803F090
:1013AC000103002B00F08780924B5B6803F00C0369
:1013BC00042B0CD08F4B5B6803F00C03082B12D161
:1013CC008C4B5B6803F48033B3F5803F0BD1894BB6
:1013DC001B6803F40033002B6CD07B685B68002B1C
:1013EC0068D101234CE27B685B68B3F5803F06D182
:1013FC00804B1B687F4A43F4803313602EE07B687C
:10140C005B68002B0CD17B4B1B687A4A23F480332E
:10141C001360784B1B68774A23F4802313601DE01C
:10142C007B685B68B3F5A02F0CD1724B1B68714ABB
:10143C0043F4802313606F4B1B686E4A43F4803374
:10144C0013600BE06B4B1B686A4A23F48033136008
:10145C00684B1B68674A23F4802313607B685B68C6
:10146C00002B13D0FFF7D0FA386108E0FFF7CCFA65
:10147C0002463B69D31A642B01D9032300E25D4B6E
:10148C001B6803F40033002BF0D014E0FFF7BCFA18
:10149C00386108E0FFF7B8FA02463B69D31A642BAF
:1014AC0001D90323ECE1534B1B6803F40033002BED
:1014BC00F0D100E000BF7B681B6803F00203002B37
:1014CC0063D04C4B5B6803F00C03002B0BD0494BE7
:1014DC005B6803F00C03082B1CD1464B5B6803F4D0
:1014EC008033002B16D1434B1B6803F00203002BF7
:1014FC0005D07B681B69012B01D00123C0E13D4B5A
:10150C001B6823F0F8027B685B69DB0039491343E5
:10151C000B603AE07B681B69002B20D0364B012214
:10152C001A60FFF771FA386108E0FFF76DFA0246AE
:10153C003B69D31A022B01D90323A1E12D4B1B6864
:10154C0003F00203002BF0D02A4B1B6823F0F802A7
:10155C007B685B69DB00274913430B6015E0264B66
:10156C0000221A60FFF750FA386108E0FFF74CFAD6
:10157C0002463B69D31A022B01D9032380E11D4B90
:10158C001B6803F00203002BF0D17B681B6803F08F
:10159C000803002B3AD07B689B69002B19D0174BA2
:1015AC0001221A60FFF730FA386108E0FFF72CFAD5
:1015BC0002463B69D31A022B01D9032360E10D4B80
:1015CC005B6A03F00203002BF0D0012000F09CFAC0
:1015DC001CE00A4B00221A60FFF716FA38610FE084
:1015EC00FFF712FA02463B69D31A022B08D90323E0
:1015FC0046E100BF0010024000004242800442421B
:10160C00924B5B6A03F00203002BE9D17B681B68E9
:10161C0003F00403002B00F0A6800023FB758B4B1A
:10162C00DB6903F08053002B0DD1884BDB69874AB3
:10163C0043F08053D361854BDB6903F08053BB606F
:10164C00BB680123FB75824B1B6803F48073002B72
:10165C0018D17F4B1B687E4A43F480731360FFF7ED
:10166C00D3F9386108E0FFF7CFF902463B69D31A8A
:10167C00642B01D9032303E1754B1B6803F48073BE
:10168C00002BF0D07B68DB68012B06D16F4B1B6AFB
:10169C006E4A43F0010313622DE07B68DB68002B7C
:1016AC000CD16A4B1B6A694A23F001031362674B26
:1016BC001B6A664A23F0040313621CE07B68DB6838
:1016CC00052B0CD1614B1B6A604A43F00403136277
:1016DC005E4B1B6A5D4A43F0010313620BE05B4BEC
:1016EC001B6A5A4A23F001031362584B1B6A574A70
:1016FC0023F0040313627B68DB68002B15D0FFF723
:10170C0083F938610AE0FFF77FF902463B69D31A87
:10171C0041F28832934201D90323B1E04B4B1B6A4F
:10172C0003F00203002BEED014E0FFF76DF93861E3
:10173C000AE0FFF769F902463B69D31A41F2883295
:10174C00934201D903239BE0404B1B6A03F0020335
:10175C00002BEED1FB7D012B05D13C4BDB693B4AC9
:10176C0023F08053D3617B68DB69002B00F087800A
:10177C00364B5B6803F00C03082B61D07B68DB698C
:10178C00022B46D1334B00221A60FFF73DF938612A
:10179C0008E0FFF739F902463B69D31A022B01D94D
:1017AC0003236DE0294B1B6803F00073002BF0D171
:1017BC007B681B6AB3F5803F08D1244B5B6823F42C
:1017CC0000327B689B68214913434B601F4B5B685D
:1017DC0023F474127B68196A7B685B6A0B431B49A0
:1017EC0013434B601B4B01221A60FFF70DF9386154
:1017FC0008E0FFF709F902463B69D31A022B01D91D
:10180C0003233DE0114B1B6803F00073002BF0D059
:10181C0035E0104B00221A60FFF7F6F8386108E04B
:10182C00FFF7F2F802463B69D31A022B01D90323C6
:10183C0026E0064B1B6803F00073002BF0D11EE072
:10184C007B68DB69012B07D1012319E000100240F2
:10185C0000700040600042420B4B5B68FB60FB6811
:10186C0003F480327B681B6A9A4206D1FB6803F44E
:10187C0070127B685B6A9A4201D0012300E000235E
:10188C0018461837BD4680BD0010024080B584B0A4
:10189C0000AF786039607B68002B01D10123D0E068
:1018AC006A4B1B6803F007033A689A4210D9674BDE
:1018BC001B6823F0070265493B6813430B60634BBD
:1018CC001B6803F007033A689A4201D00123B8E081
:1018DC007B681B6803F00203002B20D07B681B681D
:1018EC0003F00403002B05D0594B5B68584A43F4B2
:1018FC00E06353607B681B6803F00803002B05D082
:10190C00534B5B68524A43F460535360504B5B68D3
:10191C0023F0F0027B689B684D4913434B607B6856
:10192C001B6803F00103002B40D07B685B68012B24
:10193C0007D1474B1B6803F40033002B15D101234F
:10194C007FE07B685B68022B07D1414B1B6803F07F
:10195C000073002B09D1012373E03D4B1B6803F08E
:10196C000203002B01D101236BE0394B5B6823F0A0
:10197C0003027B685B68364913434B60FFF744F8FE
:10198C00F8600AE0FFF740F80246FB68D31A41F210
:10199C008832934201D9032353E02D4B5B6803F04B
:1019AC000C027B685B689B009A42EBD1274B1B684F
:1019BC0003F007033A689A4210D2244B1B6823F0B9
:1019CC00070222493B6813430B60204B1B6803F052
:1019DC0007033A689A4201D0012332E07B681B6806
:1019EC0003F00403002B08D0194B5B6823F4E0626E
:1019FC007B68DB68164913434B607B681B6803F0FC
:101A0C000803002B09D0124B5B6823F460527B68EF
:101A1C001B69DB000E4913434B6000F021F80246B2
:101A2C000B4B5B681B0903F00F030A49CB5C22FAD2
:101A3C0003F3094A1360094B1B681846FEF7A2FF13
:101A4C00002318461037BD4680BD00BF0020024061
:101A5C000010024050230008000000200400002069
:101A6C0080B487B000AF0023FB600023BB60002371
:101A7C007B6100237B6000233B611E4B5B68FB603A
:101A8C00FB6803F00C03042B02D0082B03D027E0D7
:101A9C00194B3B6127E0FB689B0C03F00F03174AC3
:101AAC00D35C7B60FB6803F48033002B10D0114BAC
:101ABC005B685B0C03F00103114AD35CBB607B6871
:101ACC000D4A03FB02F2BB68B2FBF3F37B6104E04B
:101ADC007B680C4A02FB03F37B617B693B6102E090
:101AEC00054B3B6100BF3B6918461C37BD4680BCAB
:101AFC00704700BF0010024000127A0060230008FB
:101B0C007023000800093D0080B485B000AF7860F8
:101B1C000A4B1B680A4AA2FB03235B0A7A6802FB86
:101B2C0003F3FB6000BFFB685A1EFA60002BF9D16F
:101B3C0000BF00BF1437BD4680BC704700000020BA
:101B4C00D34D621080B586B000AF786000233B6146
:101B5C000023FB607B681B6803F00103002B7DD026
:101B6C000023FB754F4BDB6903F08053002B0DD129
:101B7C004C4BDB694B4A43F08053D361494BDB69D7
:101B8C0003F08053BB60BB680123FB75464B1B689D
:101B9C0003F48073002B18D1434B1B68424A43F467
:101BAC0080731360FEF730FF386108E0FEF72CFFFE
:101BBC0002463B69D31A642B01D903236DE03A4BDF
:101BCC001B6803F48073002BF0D0364B1B6A03F4B4
:101BDC004073FB60FB68002B2ED07B685B6803F4C2
:101BEC004073FA689A4227D02E4B1B6A23F4407339
:101BFC00FB602E4B01221A602C4B00221A60294AE2
:101C0C00FB681362FB6803F00103002B14D0FEF792
:101C1C00FBFE38610AE0FEF7F7FE02463B69D31A79
:101C2C0041F28832934201D9032336E01D4B1B6AE3
:101C3C0003F00203002BEED01A4B1B6A23F4407204
:101C4C007B685B68174913430B62FB7D012B05D145
:101C5C00144BDB69134A23F08053D3617B681B68F8
:101C6C0003F00203002B08D00E4B5B6823F44042B8
:101C7C007B689B680B4913434B607B681B6803F0C4
:101C8C001003002B08D0074B5B6823F480027B68A1
:101C9C00DB68044913434B60002318461837BD46D4
:101CAC0080BD00BF00100240007000404004424262
:101CBC0080B582B000AF78607B68002B01D1012326
:101CCC0076E07B685B6A002B08D17B685B68B3F5B8
:101CDC00827F09D07B680022DA6105E07B680022F4
:101CEC001A617B6800225A617B6800229A627B68C9
:101CFC0093F85130DBB2002B06D17B68002283F8BD
:101D0C0050207868FEF730FD7B68022283F8512062
:101D1C007B681B681A687B681B6822F040021A609B
:101D2C007B685B6803F482727B689B6803F40443F2
:101D3C001A437B68DB6803F400631A437B681B69F6
:101D4C0003F002031A437B685B6903F001031A4337
:101D5C007B689B6903F400731A437B68DB6903F0AF
:101D6C0038031A437B681B6A03F0800342EA0301C1
:101D7C007B689B6A03F400527B681B680A431A60F9
:101D8C007B689B691A0C7B681B6802F004025A6022
:101D9C007B681B68DA697B681B6822F40062DA6175
:101DAC007B6800225A657B68012283F8512000234E
:101DBC0018460837BD4680BD80B588B000AFF860C6
:101DCC00B9603B601346FB80FEF71EFEF861FB8892
:101DDC007B83FB6893F85130DBB2012B01D00223DB
:101DEC002AE1BB68002B02D0FB88002B01D1012318
:101DFC0022E1FB6893F85030012B01D102231BE147
:101E0C00FB68012283F85020FB68032283F85120E1
:101E1C00FB6800225A65FB68BA681A63FB68FA888B
:101E2C009A86FB68FA88DA86FB6800229A63FB685C
:101E3C0000229A87FB680022DA87FB6800225A642A
:101E4C00FB6800221A64FB689B68B3F5004F0FD146
:101E5C00FB681B681A68FB681B6822F040021A605A
:101E6C00FB681B681A68FB681B6842F480421A60A6
:101E7C00FB681B681B6803F04003402B07D0FB6812
:101E8C001B681A68FB681B6842F040021A60FB680A
:101E9C00DB68B3F5006F52D1FB685B68002B02D096
:101EAC007B8B012B45D1FB681B6B1A88FB681B686D
:101EBC00DA60FB681B6B9A1CFB681A63FB68DB8E91
:101ECC009BB2013B9AB2FB68DA8632E0FB681B6876
:101EDC009B6803F00203022B12D1FB681B6B1A8860
:101EEC00FB681B68DA60FB681B6B9A1CFB681A6347
:101EFC00FB68DB8E9BB2013B9AB2FB68DA8618E07A
:101F0C00FEF782FD0246FB69D31A3A689A4203D85F
:101F1C003B68B3F1FF3F02D13B68002B09D1FB6852
:101F2C00012283F85120FB68002283F85020032300
:101F3C0082E0FB68DB8E9BB2002BC7D153E0FB68C1
:101F4C005B68002B02D07B8B012B47D1FB681A6B93
:101F5C00FB681B680C3312781A70FB681B6B5A1CDD
:101F6C00FB681A63FB68DB8E9BB2013B9AB2FB6881
:101F7C00DA8633E0FB681B689B6803F00203022BD4
:101F8C0013D1FB681A6BFB681B680C3312781A7040
:101F9C00FB681B6B5A1CFB681A63FB68DB8E9BB2DD
:101FAC00013B9AB2FB68DA8618E0FEF72DFD02467B
:101FBC00FB69D31A3A689A4203D83B68B3F1FF3FE6
:101FCC0002D13B68002B09D1FB68012283F8512018
:101FDC00FB68002283F8502003232DE0FB68DB8E86
:101FEC009BB2002BC6D1FA693968F86800F0B0F8DA
:101FFC000346002B02D0FB6820225A65FB689B68C5
:10200C00002B0AD100237B61FB681B68DB687B61BA
:10201C00FB681B689B687B617B69FB68012283F80A
:10202C005120FB68002283F85020FB685B6D002B6D
:10203C0001D0012300E0002318462037BD4680BDA7
:10204C0080B588B000AFF860B9603B601346FB7197
:10205C00FEF7DAFC0246BB6A9B1A3A681344FB6132
:10206C00FEF7D2FCB861394B1B685B011B0DFA699A
:10207C0002FB03F37B6154E03B68B3F1FF3F50D0AC
:10208C00FEF7C2FC0246BB69D31AFA699A4202D91E
:10209C00FB69002B3DD1FB681B685A68FB681B6809
:1020AC0022F0E0025A60FB685B68B3F5827F11D1C5
:1020BC00FB689B68B3F5004F04D0FB689B68B3F5D5
:1020CC00806F07D1FB681B681A68FB681B6822F0DD
:1020DC0040021A60FB689B6AB3F5005F0FD1FB6886
:1020EC001B681A68FB681B6822F400521A60FB68B4
:1020FC001B681A68FB681B6842F400521A60FB6884
:10210C00012283F85120FB68002283F8502003231E
:10211C0017E07B69002B01D10023FB617B69013B3C
:10212C007B61FB681B689A68BB681340BA689A426B
:10213C000CBF01230023DBB21A46FB799A429BD1D8
:10214C00002318462037BD4680BD00BF000000208C
:10215C0080B586B002AFF860B9607A607B68009396
:10216C00BB6801220221F868FFF76AFF0346002BC7
:10217C0007D0FB685B6D43F02002FB685A650323B4
:10218C0013E07B680093BB6800228021F868FFF79E
:10219C0057FF0346002B07D0FB685B6D43F0200212
:1021AC00FB685A65032300E0002318461037BD4630
:1021BC0080BD000080B584B000AF0346FB80FB8877
:1021CC001B0A9BB2DBB23B73FB88DBB27B73002236
:1021DC0001210A48FFF7C0F807F10C014FF0FF335B
:1021EC0002220748FFF7E8FD012201210348FFF70F
:1021FC00B3F800BF1037BD4680BD00BF000C0140D6
:10220C005800002080B500AF012201210F48FFF7D4
:10221C00A3F8012202210D48FFF79EF80A20FEF7D1
:10222C00FDFB002202210948FFF796F84FF40450F9
:10223C00FFF7C0FF064800F00DF84FF44040FFF7E1
:10224C00B9FF00F03FF800BF80BD00BF000C01409B
:10225C0000007A4480B584B000AF78604FF09B41A9
:10226C007868FDF76DFF034615491846FEF71CF814
:10227C0003461846FEF7B4F80346FB60FB689BB2B6
:10228C00C3F30D039BB243F480437B81FB689B0B30
:10229C009BB2C3F30D039BB243F480433B814FF4D9
:1022AC000450FFF787FF7B891846FFF783FF3B89B4
:1022BC001846FFF77FFF00BF1037BD4680BD00BF3B
:1022CC00180D8F4C80B500AF4FF40050FFF772FF24
:1022DC0000BF80BD03460244934200D1704703F80F
:1022EC00011BF9E770B500260C4D0D4C641BA410B6
:1022FC00A64209D100F01AF800260A4D0A4C641BBC
:10230C00A410A64205D170BD55F8043B9847013680
:10231C00EEE755F8043B98470136F2E774230008C2
:10232C00742300087423000878230008F8B500BF54
:10233C00F8BC08BC9E467047F8B500BFF8BC08BC9A
:04234C009E467047F2
:102350000000000000000000010203040607080955
:1023600002030405060708090A0B0C0D0E0F1010D6
:042370000102000066
:04237400310100082B
:042378000D0100084B
:0C237C0000127A001000000001000000B8
:0400000508000919CD
:00000001FF
